:1000000010C02AC029C028C027C026C025C024C0CF
:1000100023C022C021C020C01FC073C01DC01CC08F
:100020001BC011241FBECFE5D1E0DEBFCDBF10E065
:10003000A0E6B0E0E0E3F1E002C005900D92A0364A
:10004000B107D9F720E0A0E6B0E001C01D92A836C4
:10005000B207E1F74AD06AC0D3CF369A08953E9AE4
:1000600086B18F6A86B9089A7894F7CF82E88FBDF7
:1000700089E18EBD82ED90E095BD84BD89E690E07A
:100080009BBD8ABDD69AD39ADB9A0895DB988FE8F8
:1000900095E60197F1F700C00000DB9AEFE6F7E183
:1000A0003197F1F700C0000087E090E0DB98EFECBB
:1000B000F7E03197F1F700C00000DB9AEFECF7E0D2
:1000C0003197F1F700C00000019781F70895CEDF66
:1000D000C6DF8BB386608BBB89B38270809362006E
:1000E00089B38470809365000895F1DFCFDF2FEF2F
:1000F00086E496E8215080409040E1F700C000007F
:10010000F5CF1F920F920FB60F9211248F939F93EA
:10011000349A84B195B190936100809360009F916F
:100120008F910F900FBE0F901F901895F894FFCFEE
:00000001FF
