:1000000010C02AC029C028C027C026C025C024C0CF
:1000100023C022C021C020C01FC054C11DC01CC0AD
:100020001BC011241FBECFE5D1E0DEBFCDBF10E065
:10003000A0E6B0E0EAE1F3E002C005900D92A2363E
:10004000B107D9F720E0A2E6B0E001C01D92A936C1
:10005000B207E1F7ECD05FC1D3CF369A08953E9A4C
:1000600086B18F6A86B9089A7894F7DF089582E896
:100070008FBD89E18EBD82ED90E095BD84BD89E69E
:1000800090E09BBD8ABDD69AD39ADB9A0895DB98FF
:100090008FE895E60197F1F700C00000DB9AEFE6E4
:1000A000F7E13197F1F700C0000087E090E0DB98BE
:1000B000EFECF7E03197F1F700C00000DB9AEFECCE
:1000C000F7E03197F1F700C00000019781F708953C
:1000D000CEDFC5DF8BB386608BBB89B38270809324
:1000E000640089B38470809366000895611571057A
:1000F000B9F0E82FF92F80E090E020916200309174
:100100006300219331932FE738E341E021503040E1
:100110004040E1F700C0000001968617970769F795
:1001200008950F931F93CF93DF934115510529F144
:100130008A01000F111FDB01A00FB11FE82FF92F5B
:10014000E801CE0FDF1F8191919120813181821BC7
:10015000930B11969C938E93EC17FD07A1F7FB016F
:10016000DB01A00FB11F80E090E021913191820F5F
:10017000931FEA17FB07C9F702C080E090E0BA01BD
:10018000B6D0862FDF91CF911F910F910895AF9236
:10019000BF92CF92DF92EF92FF920F931F93CF9374
:1001A000DF93CDB7DEB7ADB6BEB69C01220F331FCD
:1001B0004DB75EB7421B530B0FB6F8945EBF0FBE30
:1001C0004DBF0DB71EB70F5F1F4F6C0151E0C51A31
:1001D000D1089601220F331F4DB75EB7421B530B58
:1001E0000FB6F8945EBF0FBE4DBFEDB6FEB621E070
:1001F00030E0E20EF31EBC01802F912F77DFA601C5
:100200006E2D7F2D802F912F8CDF809360000FB695
:10021000F894BEBE0FBEADBEDF91CF911F910F917E
:10022000FF90EF90DF90CF90BF90AF90089550DF98
:100230008AE090E0ACDF06E911E0C2E6D0E099B3D5
:1002400092709093670089B38470809368002091C6
:100250006400921751F0209160002E5F273918F446
:100260002093600002C0009360009093640090911E
:100270006600891749F090916000915019F09093B1
:10028000600002C01093600080936600809165005A
:100290002091620030916300281B31098091600039
:1002A00090E08217930750F4F2DE2FEF89E698E191
:1002B000215080409040E1F700C000008881809389
:1002C0006500BDCF1F920F920FB60F9211248F932E
:1002D0009F93349A84B195B19093630080936200A8
:1002E0009F918F910F900FBE0F901F901895AA1B92
:1002F000BB1B51E107C0AA1FBB1FA617B70710F011
:10030000A61BB70B881F991F5A95A9F78095909542
:0A031000BC01CD010895F894FFCF61
:02031A001400CD
:00000001FF
